S01900005049445F6D6F746F725F636F6E74726F6C2E737265633E
S11300000C94B5000C94D2000C94D2000C94D20041
S11300100C94D2000C94D2000C94D2000C94D20014
S11300200C94D2000C94D2000C9456030C94D2007D
S11300300C94D2000C949C030C94B4030C94D20042
S11300400C94D2000C94D2000C94D2000C94D200E4
S11300500C94D2000C94D2000C94D2000C94D200D4
S11300600C94D2000C94D2006E616E00696E66002E
S113007000407A10F35A00A0724E18090010A5D45B
S1130080E80000E87648170000E40B54020000CAB8
S11300909A3B000000E1F5050000809698000000FE
S11300A040420F000000A08601000000102700005D
S11300B00000E803000000006400000000000A00E3
S11300C0000000000100000000002C76D888DC67E6
S11300D04F0823DFC1DFAE59E1B1B796E5E3E4533E
S11300E0C63AE651997696E8E6C28426EB898C9B5B
S11300F062ED407C6FFCEFBC9C9F40F2BAA56FA5FB
S1130100F490055A2AF75C936B6CF9676DC11BFC7C
S1130110E0E40D47FEF520E6B500D0ED902E030097
S1130120943577050080841E080000204E0A0000E4
S113013000C80C333333330F986E12831141EF8DA3
S11301402114893BE65516CFFEE6DB18D1844B38E3
S11301501BF77C1D901DA4BBE424203284725E2214
S11301608100C9F124ECA1E53D2711241FBECFEF86
S1130170D8E0DEBFCDBF11E0A0E0B1E0E6E0FAE1F7
S113018002C005900D92A434B107D9F721E0A4E48C
S1130190B1E001C01D92A437B207E1F70E94330415
S11301A00C94010D0C9400008AB18F708AB98BB144
S11301B08F708BB908958AB1806F8AB98BB18F70B3
S11301C08BB908958AB18F708AB98BB1806F8BB95E
S11301D0089585B1846085B985E08A95F1F70000BA
S11301E085B18B7F85B90895CF93DF93D82F0E9473
S11301F0DB008D2F82958F70CD2FCF7080FF03C0D1
S11302009BB190689BB9869580FF03C09BB19064B5
S11302109BB9869580FF03C09BB190629BB986957C
S113022019F08BB180618BB90E94E9000E94DB0058
S1130230D0FF03C08BB180688BB98C2F869580FF6B
S113024003C09BB190649BB9869580FF03C09BB1AA
S113025090629BB9869519F08BB180618BB90E942D
S1130260E9000E94D400DF91CF910895CF930E94BA
S1130270E20085B1886085B9C1E010C085B18460B1
S113028085B9000000004C9BC0E085B18B7F85B927
S1130290000000000E94E90000000000C13071F37A
S11302A085B1877F85B9CF910895CF93C82F0E94D8
S11302B036018C2F0E94F400CF910895613009F427
S11302C0805C80680E945501089581E00E94550178
S11302D00895CF93C82F0E94360185B1806185B9F6
S11302E08C2F0E94F40085B18F7E85B9CF9108953B
S11302F0CF93DF93EC01862F642F0E945E0103C02D
S113030021960E94690188818111FACFDF91CF91F2
S11303100895CF932FEF81EE94E0215080409040D8
S1130320E1F700C0000084B18C6184B985B1837E9B
S113033085B90E94DB00C0E00CC08BB1806C8BB926
S11303400E94E9008FE19EE40197F1F700C00000EC
S1130350CF5FC33091F70E9436010E94DB008BB15E
S113036080648BB90E94E90088E20E9455018CE008
S11303700E94550186E00E94550182E00E945501C9
S113038081E00E945501CF9108959093C500809318
S1130390C40088E18093C1008EE08093C200089578
S11303A09091C00095FFFCCF8093C6000895CF9331
S11303B0DF93FC0103C00E94D001FE01EF012196EE
S11303C080818111F8CFDF91CF910895CF93DF938E
S11303D0FC0103C00E94D001FE01EF01219680813F
S11303E08111F8CF83E091E00E94D701DF91CF9192
S11303F0089588B1806388B9089586B1807290E0C9
S11304009C013595279535952795359527953595EF
S1130410279596B19071892F90E09595879595953C
S113042087959595879595958795822B9091000151
S11304309330A1F4891791F0813039F490915401EB
S11304409F5F9093540110920001823039F490918F
S1130450540191509093540110920001833011F48F
S1130460809300018091540190914F01981720F4DA
S113047080934F018EEF0895891720F480934F01E4
S113048082E0089580E008954F925F926F927F9288
S1130490AF92BF92CF92DF92EF92FF920F931F938E
S11304A0CF93DF9300D000D0CDB7DEB72B013C0152
S11304B0CA01B901E982FA820B831C83A301920168
S11304C00E945E052B013C01A60195010E94BD0618
S11304D020914B0130914C0140914D0150914E01BE
S11304E00E945F0560934B0170934C0180934D0112
S11304F090934E0120E030E0A9010E94CB0518162C
S113050044F010924B0110924C0110924D01109244
S11305104E0160914B0170914C0180914D0190917D
S11305204E0120E030E04FE753E40E94B8068823F0
S113053064F080E090E0AFE7B3E480934B019093E4
S11305404C01A0934D01B0934E012091470130918D
S113055048014091490150914A01C301B2010E94EE
S11305605E056B017C014092470150924801609204
S1130570490170924A0129813A814B815C81C3010E
S1130580B2010E94BD0620914B0130914C01409173
S11305904D0150914E010E945F052B013C012D89B4
S11305A03E894F89588DC701B6010E94BD069B0143
S11305B0AC01C301B2010E945F052B013C0120E0A4
S11305C030E0A9010E94CB05181684F420E030E045
S11305D04FE753E4C301B2010E94B80688234CF4E8
S11305E0C301B2010E94D005CB0105C080E090E0B8
S11305F002C08FEF90E00F900F900F900F90DF915B
S1130600CF911F910F91FF90EF90DF90CF90BF900B
S1130610AF907F906F905F904F9008950F931F93CA
S1130620CF93DF9380916E018F9380916D018F93AF
S113063006E011E01F930F93C5E5D1E0DF93CF935C
S11306400E94580CCE010E94D70189E091E00E94DB
S1130650D701809172018F93809171018F931F93C1
S11306600F93DF93CF930E94580CCE010E94D701C1
S113067089E091E00E94D7018091B4001F928F938A
S11306801F930F93DF93CF930E94580CCE010E94C7
S1130690E6018DB79EB742960FB6F8949EBF0FBE83
S11306A08DBFDF91CF911F910F9108951F920F92EB
S11306B00FB60F9211242F933F934F935F936F9331
S11306C07F938F939F93AF93BF93EF93FF93E6E84A
S11306D0F0E0208131818091450190914601281BF1
S11306E0390B309302012093010180819181909311
S11306F046018093450110926A011092530140E033
S113070050E060EE78EC80E190E00E94A70A30931C
S11307106E0120936D01FF91EF91BF91AF919F9175
S11307208F917F916F915F914F913F912F910F9096
S11307300FBE0F901F9018951F920F920FB60F9235
S113074011248F9380916A018F5F80936A018230B4
S113075029F481E08093530180936A018F910F9073
S11307600FBE0F901F9018951F920F920FB60F9205
S113077011242F933F934F935F936F937F938F93A2
S11307809F93AF93BF93EF93FF93F89480914401A9
S11307908F5F80934401813021F41092440180934F
S11307A06F01809150018F5F80935001883229F44A
S11307B01092500181E080936C0132990BC081E06A
S11307C08093690182E08093B100E0EBF0E08081E6
S11307D08362808331990BC0109269011092B10039
S11307E01092B0001092B4008BB1877F8BB930990E
S11307F003C081E0809370010E94FD01209171018A
S113080030917201A901480F511D87FD5A955093EB
S11308107201409371014135510530F480E590E057
S11308209093720180937101809171019091720192
S11308308835924030F088E592E09093720180937D
S113084071017894FF91EF91BF91AF919F918F9136
S11308507F916F915F914F913F912F910F900FBEB8
S11308600F901F9018952FEF81EE94E02150804057
S11308709040E1F700C0000087E690E00E94C501C7
S11308800E94F90188B18F6088B98AB188608AB9F9
S11308908BB1877F8BB985B1816085B91092800057
S11308A083E880938100109285001092840081E295
S11308B080936F0084B5826084BD85B5856085BDF5
S11308C08CE987BDEEE6F0E08081826080830E943F
S11308D089010E94650180E090E00E94D80C909309
S11308E0720180937101789480915301882321F0DF
S11308F010926E0110926D0180916F018823B1F105
S113090080916901882391F110926F0160917101C6
S11309107091720180E090E00E9406062B013C0178
S113092060916D0170916E0180E090E00E94060676
S11309301F921F921F921F920F2EFAE0AF2EF7ED17
S1130940BF2EF3EACF2EFCE3DF2EF02DE12CF12CA9
S113095000E81FE3A30192010E9444028093B400C3
S11309600E940E030F900F900F900F9080916C01D6
S1130970882309F48EC010926C0180917001882341
S113098099F040E060E08BE091E00E947801809172
S113099073018F5F80937301873009F041C0109217
S11309A07301109270013CC081E080935101409129
S11309B0710150917201FA01F695E795F695E79564
S11309C09F01ABE7B4E10E94C60A9695879564E659
S11309D0689F9001699F300D1124421B530B5F9354
S11309E04F939F010E94C60A969587959F938F9374
S11309F08CE191E09F938F9385E591E09F938F9392
S1130A000E94580C40E060E085E591E00E94780186
S1130A108DB79EB708960FB6F8949EBF0FBE8DBFD4
S1130A2040916D0150916E01FA01F695E795F695A6
S1130A30E7959F01ABE7B4E10E94C60A96958795B6
S1130A4064E6689F9001699F300D1124421B530B8B
S1130A505F934F939F010E94C60A969587959F9333
S1130A608F9380E391E09F938F9385E591E09F932B
S1130A708F930E94580C41E060E085E591E00E946C
S1130A8078018DB79EB708960FB6F8949EBF0FBE37
S1130A908DBF80917001882309F426CF8091510184
S1130AA0882309F421CF609171017091720180E073
S1130AB090E00E94DE0C1092510116CF5058BB27D3
S1130AC0AA270E9476050C947E060E94700638F0D0
S1130AD00E94770620F039F49F3F19F426F40C9411
S1130AE06D060EF4E095E7FB0C946706E92F0E946F
S1130AF08F0658F3BA17620773078407950720F027
S1130B0079F4A6F50C94B1060EF4E0950B2EBA2FE9
S1130B10A02D0B01B90190010C01CA01A0011124FF
S1130B20FF27591B99F0593F50F4503E68F11A16AB
S1130B30F040A22F232F342F4427585FF3CF46953C
S1130B4037952795A795F0405395C9F77EF41F165E
S1130B50BA0B620B730B840BBAF09150A1F0FF0F28
S1130B60BB1F661F771F881FC2F70EC0BA0F621F14
S1130B70731F841F48F4879577956795B795F79504
S1130B809E3F08F0B0CF9395880F08F09927EE0F99
S1130B909795879508950E94430608F481E0089587
S1130BA00E94D7056894B1110C94B20608950E946E
S1130BB0970688F09F5798F0B92F9927B751B0F04E
S1130BC0E1F0660F771F881F991F1AF0BA95C9F7CD
S1130BD014C0B13091F00E94B106B1E008950C94B4
S1130BE0B106672F782F8827B85F39F0B93FCCF367
S1130BF0869577956795B395D9F73EF4909580954A
S1130C00709561957F4F8F4F9F4F0895E89409C069
S1130C1097FB3EF490958095709561957F4F8F4F2B
S1130C209F4F9923A9F0F92F96E9BB279395F69541
S1130C30879577956795B795F111F8CFFAF4BB0FBF
S1130C4011F460FF1BC06F5F7F4F8F4F9F4F16C023
S1130C50882311F096E911C0772321F09EE8872FAD
S1130C60762F05C0662371F096E8862F70E060E069
S1130C702AF09A95660F771F881FDAF7880F9695E2
S1130C80879597F90895990F0008550FAA0BE0E886
S1130C90FEEF16161706E807F907C0F0121613063A
S1130CA0E407F50798F0621B730B840B950B39F47A
S1130CB00A2661F0232B242B252B21F408950A26E0
S1130CC009F4A140A6958FEF811D811D089597F920
S1130CD09F6780E870E060E008959FEF80EC0895DE
S1130CE000240A9416161706180609060895002407
S1130CF00A9412161306140605060895092E039481
S1130D00000C11F4882352F0BB0F40F4BF2B11F4F4
S1130D1060FF04C06F5F7F4F8F4F9F4F089557FD53
S1130D209058440F551F59F05F3F71F04795880F55
S1130D3097FB991F61F09F3F79F0879508951216EC
S1130D4013061406551FF2CF4695F1DF08C0161698
S1130D5017061806991FF1CF869571056105089449
S1130D600895E894BB2766277727CB0197F9089560
S1130D700E94430608F48FEF08950E94D0060C9455
S1130D807E060E94700638F00E94770620F09523B4
S1130D9011F00C9467060C946D0611240C94B206A1
S1130DA00E948F0670F3959FC1F3950F50E0551F75
S1130DB0629FF001729FBB27F00DB11D639FAA27AC
S1130DC0F00DB11DAA1F649F6627B00DA11D661FFB
S1130DD0829F2227B00DA11D621F739FB00DA11D1C
S1130DE0621F839FA00D611D221F749F3327A00DD6
S1130DF0611D231F849F600D211D822F762F6A2F72
S1130E0011249F5750409AF0F1F088234AF0EE0FD6
S1130E10FF1FBB1F661F771F881F91505040A9F703
S1130E209E3F510580F00C9467060C94B2065F3F18
S1130E30E4F3983ED4F3869577956795B795F7953F
S1130E40E7959F5FC1F7FE2B880F911D96958795B7
S1130E5097F90895A0E1B0E0E0E3F7E00C94D50A37
S1130E607C011B016A01FC0117821682838181FFC8
S1130E7044C39E012F5F3F4F3901F7019381F10174
S1130E8093FD859193FF81911F01882309F431C358
S1130E90853239F493FD859193FF81911F01853249
S1130EA039F4B70190E00E941C0C56016501E5CFAE
S1130EB010E0512C912CFFE1F915D8F08B3279F028
S1130EC038F4803279F08332A1F4F92DF0612EC028
S1130ED08D3261F0803369F4292D21602DC0392DC4
S1130EE03260932E892D8460982E2AC0E92DE86003
S1130EF015C097FC2DC020ED280F2A3088F496FEEB
S1130F0006C03AE0139F200D1124122F19C08AE065
S1130F10589E200D1124522EE92DE0629E2E10C001
S1130F208E3231F496FCE5C2F92DF0649F2E08C090
S1130F308C3621F4292D2068922E02C0883641F483
S1130F40F10193FD859193FF81911F018111B3CF2D
S1130F509BEB980F933020F4992D9061805E07C02D
S1130F609BE9980F933008F066C1992D9F7E96FFF8
S1130F7016E09F73992E853619F49064992E08C053
S1130F80863621F4392F3068932E02C01111115086
S1130F9097FE07C01C3350F444244394410E27E0C9
S1130FA00BC0183038F027E017E005C027E09CE3B9
S1130FB0492E02C0212F412C560184E0A80EB11CF9
S1130FC0F6016081718182819381042DA3010E94C5
S1130FD02E0B6C01F981FC87F0FF02C0F3FF06C001
S1130FE091FC06C092FE06C000E205C00DE203C0FB
S1130FF00BE201C000E08C858C7019F001115AC21B
S11310009BC297FE10C04C0CFC85F4FF04C08A817F
S1131010813309F44A94141474F528E0241578F5FE
S113102088E0482E2CC096FC2AC0812F90E08C15B5
S11310309D059CF03CEFC3163FEFD30674F0892D59
S11310408068982E0AC0E2E0F0E0EC0FFD1FE10F8B
S1131050F11D8081803319F411501111F4CF97FEE2
S11310600EC044244394410E812F90E0C816D90643
S11310702CF41C1904C04424439401C010E097FECE
S113108006C01C141D0434F4C601019605C085E095
S113109090E002C081E090E001110196112331F04B
S11310A0212F30E02F5F3F4F820F931F252D30E01B
S11310B08217930714F4581A01C0512C892D897092
S11310C049F4552039F0B70180E290E00E941C0CED
S11310D05A94F7CF002329F0B701802F90E00E94A3
S11310E01C0C93FC09C0552039F0B70180E390E053
S11310F00E941C0C5A94F7CF97FE4CC04601D7FEB1
S113110002C0812C912CC60188199909F301E80FBA
S1131110F91FFE87ED87960124193109388B2F8733
S1131120012F10E01195019511093FEF83169306E5
S113113029F4B7018EE290E00E941C0CC814D90473
S11311404CF08F8598898815990524F4ED85FE85E2
S1131150818101C080E3F1E08F1A91082D853E85DD
S11311602F5F3F4F3E872D87801691062CF0B701E5
S113117090E00E941C0CD9CFC814D90441F49A8180
S1131180963320F4953319F43C8534FF81E3B70199
S113119090E04EC08A81813319F09C859F7E9C87A4
S11311A0B70190E00E941C0C111105C094FC18C0FA
S11311B085E690E017C0B7018EE290E00E941C0C17
S11311C01E5F82E001E0080FF301E80FF11D80814A
S11311D0B70190E00E941C0C802F0113F3CFE6CFDF
S11311E085E490E0B7010E941C0CD7FC06C0C11432
S11311F0D10441F4EC85E4FF05C0D194C194D10835
S11312008DE201C08BE2B70190E00E941C0C80E3E8
S11312102AE0C216D1042CF08F5FFAE0CF1AD1086D
S1131220F7CFB70190E00E941C0CB701C601C0962D
S11312300E941C0C54C1833631F0833779F0833516
S113124009F056C020C0560132E0A30EB11CF601CD
S11312508081898301E010E0630112C05601F2E04D
S1131260AF0EB11CF601C080D18096FE03C0612F81
S113127070E002C06FEF7FEFC6010E94110C8C0179
S1131280F92DFF7714C0560122E0A20EB11CF6011D
S1131290C080D18096FE03C0612F70E002C06FEF62
S11312A07FEFC6010E94060C8C01F92DF0689F2E79
S11312B0F3FD1AC0852D90E008171907A8F4B701AB
S11312C080E290E00E941C0C5A94F4CFF60197FC43
S11312D0859197FE81916F01B70190E00E941C0CEB
S11312E051105A94015011090115110579F7F7C0ED
S11312F0843611F0893661F5560197FE09C024E061
S1131300A20EB11CF60160817181828193810AC0B1
S1131310F2E0AF0EB11CF60160817181072E000C62
S1131320880B990BF92DFF769F2E97FF09C0909596
S11313308095709561957F4F8F4F9F4FF0689F2EDA
S11313402AE030E0A3010E947A0CC82EC6183FC0E0
S1131350092D853721F40F7E2AE030E01DC0097F76
S11313608F3691F018F4883559F0C3C0803719F0DE
S1131370883711F0BEC0006104FF09C0046007C0D3
S113138094FE08C0066006C028E030E005C020E1F5
S113139030E002C020E132E0560107FF09C084E0DA
S11313A0A80EB11CF601608171818281938108C00D
S11313B0F2E0AF0EB11CF6016081718180E090E033
S11313C0A3010E947A0CC82EC6180F77902E96FEA1
S11313D00BC0092D0E7FC11650F494FE0AC092FC76
S11313E008C0092D0E7E05C0DC2C092D03C0DC2CA1
S11313F001C0D12E04FF0DC0FE01EC0DF11D808152
S1131400803311F4097E09C002FF06C0D394D3943B
S113141004C0802F867809F0D39403FD11C000FF27
S113142006C01C2DD51480F4150D1D190DC0D5143E
S113143058F4B70180E290E00E941C0CD394F7CFDB
S1131440D51410F45D1801C0512C04FF10C0B7016D
S113145080E390E00E941C0C02FF17C001FD03C052
S113146088E790E002C088E590E0B7010CC0802FC7
S1131470867859F001FF02C08BE201C080E207FDCB
S11314808DE2B70190E00E941C0CC11638F4B7013C
S113149080E390E00E941C0C1150F7CFCA94F30132
S11314A0EC0DF11D8081B70190E00E941C0CC1106D
S11314B0F5CF15C0F4E0F51560F584E0581A93FEF5
S11314C01FC0011127C02C8523FF2AC008E610E0A5
S11314D0392D3071932EF8018491811124C0552047
S11314E009F4E4CCB70180E290E00E941C0C5A9409
S11314F0F6CFF7018681978126C08FEF9FEF23C037
S1131500B70180E290E00E941C0C5A945110F8CF6D
S1131510D8CF512CB701802F90E00E941C0CD3CF60
S11315200CE610E0D5CF91108052B70190E00E94F4
S11315301C0C0F5F1F4FCFCF23E0251510F483E061
S1131540BDCF512CC0CF6096E2E10C94F10A052E78
S113155097FB1EF400940E94BE0A57FD07D00E9418
S11315600C0B07FC03D04EF40C94BE0A5095409526
S1131570309521953F4F4F4F5F4F0895909580953B
S1131580709561957F4F8F4F9F4F0895A29FB00133
S1131590B39FC001A39F700D811D1124911DB29FA3
S11315A0700D811D1124911D08952F923F924F9229
S11315B05F926F927F928F929F92AF92BF92CF92DF
S11315C0DF92EF92FF920F931F93CF93DF93CDB7E8
S11315D0DEB7CA1BDB0B0FB6F894DEBF0FBECDBF60
S11315E009942A88398848885F846E847D848C8431
S11315F09B84AA84B984C884DF80EE80FD800C813A
S11316001B81AA81B981CE0FD11D0FB6F894DEBF1C
S11316100FBECDBFED010895A1E21A2EAA1BBB1B7C
S1131620FD010DC0AA1FBB1FEE1FFF1FA217B307AA
S1131630E407F50720F0A21BB30BE40BF50B661FC0
S1131640771F881F991F1A9469F760957095809584
S113165090959B01AC01BD01CF010895283008F09D
S113166027E03327DA01990F311D87FD9160009639
S11316706105710539F432602E5F3D9330E32A959C
S1131680E1F708959F3F30F080387105610509F056
S11316903C5F3C5F3D93913008F08068911DDF937F
S11316A0CF931F930F93FF92EF92192F987F9695E4
S11316B0E92F96959695E90FFF27E653FF4F992753
S11316C03327EE24FF24A701E7010590089407942B
S11316D028F4360FE71EF81E491F511D660F771FA9
S11316E0881F991F0694A1F70590079428F4E70E24
S11316F0F81E491F561FC11D770F881F991F661FAB
S11317000694A1F70590079428F4F80E491F561F74
S1131710C71FD11D880F991F661F771F0694A1F755
S11317200590079420F4490F561FC71FD81F990F1F
S1131730661F771F881F0694A9F784911095177068
S113174041F0D695C79557954795F794E7941A9520
S1131750C1F7E0E7F0E06894159015913591659133
S1131760959105907FE27395E118F10A430B560BAE
S1131770C90BD009C0F7E10CF11E431F561FC91F46
S1131780D01D7EF4703311F48A95E6CFE8940150AD
S113179030F0080F0AF40027021708F4202F2395CD
S11317A0022F7A3328F079E37D932A95E9F710C064
S11317B07D932A9589F6069497956795379517959D
S11317C01794E118F10A430B560BC90BD00998F092
S11317D023957E9173957A3308F070E37C932013FC
S11317E0B8F77E9170617D9330F0839571E37D93BA
S11317F070E32A95E1F71124EF90FF900F911F9168
S1131800CF91DF91992787FD90950895FC0105906C
S1131810615070400110D8F7809590958E0F9F1FEE
S11318200895FC016150704001900110D8F7809533
S113183090958E0F9F1F08950F931F93CF93DF935F
S1131840FB01238121FD03C08FEF9FEF2CC022FFFA
S113185016C046815781248135814217530744F4C9
S1131860A081B1819D012F5F3F4F318320838C93F1
S1131870268137812F5F3F4F3783268314C08B0126
S1131880EC01FB010084F185E02D0995892BE1F63B
S1131890D80116968D919C911797019617969C9353
S11318A08E931697CE01DF91CF911F910F910895DA
S11318B0AEE0B0E0EEE5FCE00C94E30A0D891E898D
S11318C086E08C831A8309838FEF9FE79E838D8341
S11318D0AE01475E5F4F6F89788DCE0101960E94FD
S11318E02A07EF81F885E00FF11F10822E96E4E0BD
S11318F00C94FF0AFA01AA27283051F1203181F112
S1131900E8946F936E7F6E5F7F4F8F4F9F4FAF4F03
S1131910B1E03ED0B4E03CD0670F781F891F9A1F16
S1131920A11D680F791F8A1F911DA11D6A0F711DCA
S1131930811D911DA11D20D009F468943F912AE0D6
S1131940269F11243019305D3193DEF6CF010895BE
S1131950462F4770405D4193B3E00FD0C9F7F6CFEF
S1131960462F4F70405D4A3318F0495D31FD4052B7
S1131970419302D0A9F7EACFB4E0A695979587954D
S113198077956795BA95C9F700976105710508952C
S11319909B01AC010A2E06945795479537952795D8
S11319A0BA95C9F7620F731F841F951FA01D089570
S11319B0A8E1B0E042E050E00C94E50C0E94F30C86
S11319C0272F0C94F40CDC01CB01FC01F999FECF18
S11319D006C0F2BDE1BDF89A319600B40D924150B3
S11319E05040B8F70895262FF999FECF1FBA92BD3B
S11319F081BD20BD0FB6F894FA9AF99A0FBE0196EC
S1091A000895F894FFCFE5
S1131A06033E490D0A002564002C005365743A20F0
S1131A162053415645202020202020005365743A47
S1131A26202025642E25303264206D2F732020005B
S1131A365265616C3A2025642E25303264206D2F60
S1071A4673202000E5
S9030000FC
